:020000040800F2
:1000000058040020CD0C00084F02000851020008DF
:1000100055020008590200085D02000800000000B7
:100020000000000000000000000000006102000865
:10003000630200080000000065020008E50C0008EB
:10004000E70C0008E70C0008E70C0008E70C0008C4
:10005000E70C0008E70C0008E70C0008E70C0008B4
:10006000E70C0008E70C0008E70C0008E70C0008A4
:10007000E70C0008E70C0008E70C0008E70C000894
:10008000E70C0008E70C0008E70C0008A3030008D1
:10009000A10A0008E70C0008E70C0008E70C0008BC
:1000A000E70C0008E70C0008E70C0008E70C000864
:1000B000E70C0008E70C0008E70C0008E70C000854
:1000C000E70C0008E70C0008E70C0008E70C000844
:1000D000E70C0008E70C0008E70C0008E70C000834
:1000E000E70C0008E70C0008E70C0008E70C000824
:1000F000E70C0008E70C0008E70C0008E70C000814
:10010000E70C0008E70C0008E70C0008E70C000803
:10011000E70C0008E70C0008E70C0008E70C0008F3
:10012000E70C0008E70C0008E70C0008E70C0008E3
:10013000E70C0008E70C0008E70C0008E70C0008D3
:10014000E70C0008E70C0008E70C0008E70C0008C3
:10015000E70C0008E70C0008E70C0008E70C0008B3
:10016000E70C0008E70C0008E70C0008E70C0008A3
:10017000E70C0008E70C0008E70C0008E70C000893
:10018000E70C0008E70C0008DFF80CD002F010F8CC
:10019000004800479D010008580400204FF4A0606B
:1001A00000F0A6FD00F07AF8642000F05CF8012170
:1001B000002000F004F94FF47A7000F054F80023A6
:1001C00064220121184600F0F2FB012000F04BF8F8
:1001D00001221146002000F02BF94FF4FA7000F0D4
:1001E00042F800220121104600F05BF94FF4FA704A
:1001F00000F039F84FF4FA720121002000F051F9B3
:100200004FF4FA7000F02FF84FF47A7201210020B9
:1002100000F047F942F2107000F025F84FF4FA723E
:100220000121002000F03DF94FF4FA7000F01BF8B6
:1002300000220121104600F034F94FF4FA7000F06A
:1002400012F80121002000F0BAF800BFFEE7704765
:1002500000BFFEE700BFFEE700BFFEE700BFFEE70E
:1002600070477047704710B5002107E04AF210420E
:1002700000BF1300A2F10102FBD1491C8142F5D35A
:1002800010BD10B5002106E0282200BF1300A2F126
:100290000102FBD1491C8142F6D310BD00B58BB0E1
:1002A0000121084601F046FE0121480601F075FED5
:1002B00009220C21FB4801F07CFB09220B21F948A3
:1002C00001F077FB4FF4C050029002208DF80C0033
:1002D00002A9F44801F0E2FA14208DF8040002208B
:1002E0008DF8050001208DF806008DF8070001A8A3
:1002F00000F003FD13208DF8040001208DF80500A7
:100300008DF806008DF8070001A800F0F6FCE6481D
:1003100000F060FD08A800F081FE00208DF82600A6
:100320008DF827008DF828008DF829008DF82A0017
:1003300001208DF82B0000208DF822008DF823007D
:1003400008208DF8240003208DF82500ADF820004A
:1003500008A9D54800F057FD00208DF81A008DF847
:100360001B0001208DF81C000020ADF81000ADF836
:100370001200ADF81400ADF81600ADF81800012019
:100380008DF81D0004A800F0C8FD01220221C64816
:1003900001F0C2F801221146C34801F0BDF80BB0CC
:1003A00000BD10B50121C04801F01DF930B1012197
:1003B000BD4801F0B2F90120BC49087010BD70B50C
:1003C00086B004460D46002600208DF80C008DF8FE
:1003D0000D0008208DF80E00072C06DC0F2D04DC24
:1003E00046EA042646EA051601E006B070BD01960D
:1003F00055208DF80F0055218DF810108DF8111033
:100400008DF812108DF813108DF814108DF815104A
:100410008DF816100020A549087001A9A24800F027
:100420006BFE00BFA14800780028FBD000BFDCE7CE
:10043000F0B585B004460D461746012600208DF81C
:1004400008008DF8090008208DF80A00072C06DC4A
:100450000F2D04DC46EA042646EA051601E005B045
:10046000F0BD00968DF80B7055218DF80C108DF8AD
:100470000D108DF80E108DF80F108DF810108DF8EE
:1004800011108DF8121000208849087069468648BE
:1004900000F032FE00BF854800780028FBD000BF86
:1004A000DDE7F0B585B005460E461446022700206C
:1004B0008DF808008DF8090008208DF80A00072D36
:1004C00006DC0F2E04DC47EA052747EA061701E0A1
:1004D00005B0F0BD009741F28830844201DD04464A
:1004E00003E07348844200DA0446200A8DF80B00CA
:1004F000E1B28DF80C1055218DF80D108DF80E100D
:100500008DF80F108DF810108DF811108DF8121055
:100510000020664908706946634800F0EDFD00BFA1
:10052000624800780028FBD000BFD1E72DE9F041F8
:1005300086B005460E4614461F464FF003080020BD
:100540008DF80C008DF80D0008208DF80E00072D99
:1005500006DC0F2E04DC48EA052848EA061802E00B
:1005600006B0BDE8F081CDF8048041F288308442C5
:1005700001DD044603E04E48844200DA0446002CC4
:1005800004DA01DD204600E0604204B2200A8DF862
:100590000F008DF81040390A8DF811108DF8127087
:1005A00055218DF813108DF814108DF815108DF855
:1005B000161000203D49087001A93B4800F09CFD41
:1005C00000BF3A4800780028FBD000BFC8E72DE9FB
:1005D000F04186B005460E4614461F464FF004080B
:1005E00000208DF80C008DF80D0008208DF80E000D
:1005F000072D06DC0F2E04DC48EA052848EA061819
:1006000002E006B0BDE8F081CDF8048041F2883008
:10061000844201DD044603E02548844200DA0446B2
:10062000002C04DA01DD204600E0604204B2200A1A
:100630008DF80F008DF81040390A8DF811108DF8E3
:10064000127055218DF813108DF814108DF81510B7
:100650008DF8161000201549087001A9124800F005
:100660004BFD00BF114800780028FBD000BFC8E751
:100670002DE9F04186B006460F4614461D464FF060
:10068000050800208DF80C008DF80D0008208DF86D
:100690000E00072E0EDC0F2F0CDC48EA062848EA75
:1006A00007180AE00000024000640040000000203B
:1006B00078ECFFFF06B0BDE8F081CDF8048041F290
:1006C0008830844201DD044603E0FE48844200DABB
:1006D0000446002C04DA01DD204600E0604204B24A
:1006E000200A8DF80F008DF8104055218DF811105B
:1006F0008DF81210290E8DF81310290C8DF8141096
:10070000290A8DF815108DF816500020EE49087052
:1007100001A9EE4800F0F0FC00BFEB48007800288B
:10072000FBD000BFC6E72DE9F04385B007468846F9
:1007300014461D460C9E4FF0060900208DF8080057
:100740008DF8090008208DF80A00072F07DCB8F1A2
:100750000F0F04DC49EA072949EA081902E005B04D
:10076000BDE8F083CDF8009041F28830844201DD8D
:10077000044603E0D348844200DA0446002C04DA3D
:1007800001DD204600E0604204B2002D04DA01DD04
:10079000284600E0684205B2200A8DF80B00E1B25D
:1007A0008DF80C10290A8DF80D10E9B28DF80E1095
:1007B000310E8DF80F10310C8DF81010310A8DF8B4
:1007C0001110F1B28DF812100020BF49087069466F
:1007D000BE4800F091FC00BFBB4800780028FBD069
:1007E00000BFBCE72DE9F04186B005460E46144631
:1007F0001F464FF0070800208DF80C008DF80D0003
:1008000008208DF80E00072D06DC0F2E04DC48EAC8
:10081000052848EA061802E006B0BDE8F081CDF8E8
:100820000480002C04DA01DD204600E0604204B2BE
:10083000200A8DF80F008DF81040390A8DF811103C
:100840008DF8127055218DF813108DF814108DF855
:1008500015108DF8161000209B49087001A99B48BF
:1008600000F04AFC00BF984800780028FBD000BF89
:10087000D2E72DE9F04186B006460F4614461D46E4
:100880004FF0080800208DF80C008DF80D000820AE
:100890008DF80E00072E06DC0F2F04DC48EA062830
:1008A00048EA071802E006B0BDE8F081CDF8048000
:1008B000002C04DA01DD204600E0604204B2200A88
:1008C0008DF80F008DF8104055218DF811108DF81E
:1008D0001210290E8DF81310290C8DF81410290A06
:1008E0008DF815108DF8165000207749087001A971
:1008F000764800F001FC00BF734800780028FBD068
:1009000000BFD0E72DE9F04385B080460F4614467E
:100910001D460C9E4FF0090900208DF808008DF847
:10092000090008208DF80A00B8F1070F06DC0F2F28
:1009300004DC49EA082949EA071902E005B0BDE8E4
:10094000F083CDF80090002C04DA01DD204600E0B1
:10095000604204B2002D04DA01DD284600E068425E
:1009600005B2200A8DF80B00E1B28DF80C10290AAF
:100970008DF80D10E9B28DF80E10310E8DF80F10B4
:10098000310C8DF81010310A8DF81110F1B28DF87C
:10099000121000204C49087069464C4800F0ACFB2E
:1009A00000BF494800780028FBD000BFC6E72DE90A
:1009B000F04186B005460E4690461C460A270020A8
:1009C0008DF80C008DF80D0008208DF80E00072D15
:1009D00006DC0F2E04DC47EA052747EA061702E08B
:1009E00006B0BDE8F08114B1012C00D000240197BD
:1009F0008DF80F808DF8104055218DF811108DF86D
:100A000012108DF813108DF814108DF815108DF844
:100A1000161000202C49087001A92C4800F06CFB2E
:100A200000BF294800780028FBD000BFD8E770B588
:100A300086B004460D460F2600208DF80C008DF878
:100A40000D0008208DF80E00072C06DC0F2D04DCAD
:100A500046EA042646EA051601E006B070BD019696
:100A600055208DF80F0055218DF810108DF81110BC
:100A70008DF812108DF813108DF814108DF81510D4
:100A80008DF8161000201049087001A90F4800F0D9
:100A900033FB00BF0C4800780028FBD000BFDCE728
:100AA00000B585B00221094800F09DFD002840D026
:100AB0000221064800F031FE6A460021034800F09A
:100AC00010FC05E078ECFFFF00000020006400400F
:100AD0009DF8080000282CD19DF808000028FAD1C4
:100AE0009DF80A000828F6D100981B2822D19DF80D
:100AF0000C009DF80B1040EA012000B26D490880FF
:100B00009DF80E109DF80D0041EA002000B26A49E0
:100B100008809DF80F0001069DF8100041EA004191
:100B20009DF8110041EA00209DF812100843634926
:100B30000860BCE000982B2822D19DF80C009DF89D
:100B40000B1040EA012000B25A4948809DF80E106F
:100B50009DF80D0041EA002000B2574948809DF8F9
:100B60000F0001069DF8100041EA00419DF81100B8
:100B700041EA00209DF8121008435049486096E071
:100B800000983B2822D19DF80C009DF80B1040EAFC
:100B9000012000B2474988809DF80E109DF80D0095
:100BA00041EA002000B2444988809DF80F00010608
:100BB0009DF8100041EA00419DF8110041EA002033
:100BC0009DF8121008433D49886070E000984B285A
:100BD00022D19DF80C009DF80B1040EA012000B2D4
:100BE0003449C8809DF80E109DF80D0041EA0020A0
:100BF00000B23149C8809DF80F0001069DF8100031
:100C000041EA00419DF8110041EA00209DF81210D0
:100C100008432A49C8604AE000981F2803D10120F0
:100C20002749087043E000982F2803D10120244968
:100C300048703CE000983F2803D10120204988708B
:100C400035E000984F2803D101201D49C8702EE0DF
:100C500000981C2808D19DF80B001A4908709DF8CF
:100C60000C001949087022E000982C2808D19DF842
:100C70000B00144948709DF80C001349487016E0A9
:100C800000983C2808D19DF80B000E4988709DF80B
:100C90000C000D4988700AE000984C2807D19DF897
:100CA0000B000849C8709DF80C000749C87005B0D2
:100CB00000BD0000020000200A00002044000020C7
:100CC00012000020160000201A000020064880476D
:100CD00006480047FEE7FEE7FEE7FEE7FEE7FEE721
:100CE000FEE7FEE7FEE7FEE7F71A000889010008C5
:100CF00033490143334A1160704770B50021002326
:100D00000F22C47824B32F4C246804F4E064C4F5A3
:100D1000E064C4F30721C1F10404E3B20A4144785A
:100D20009C40E1B28478144021430C07210E264CEC
:100D300005786155047804F01F050124AC4005785E
:100D40006D114FF0E02606EB8505C5F8004109E07E
:100D5000047804F01F040125A5401C4C0678761188
:100D600044F8265070BD1A4A0A400243154B1B1F17
:100D70001A60704739B1134A121D12680243114BB1
:100D80001B1D1A6006E00F4A121D126882430D4BAC
:100D90001B1D1A607047042808D14FF0E021096933
:100DA00041F004014FF0E022116107E04FF0E02133
:100DB000096921F004014FF0E02211617047000041
:100DC0000000FA050CED00E000E400E080E100E046
:100DD00080FFFF1F10B50446FE48844209D101215F
:100DE000480601F042F900214FF0007001F03DF992
:100DF00008E00121880601F038F900214FF08060F9
:100E000001F033F910BD30B502460020002314680C
:100E100024F002041460146844F00104146000E03B
:100E20005B1C546814F0010F03D1A3F57F44FF3C11
:100E3000F6D1546814F0010F01D100206CE08C79D8
:100E4000012C04D1146844F08004146003E0146899
:100E500024F080041460CC79012C04D1146844F08F
:100E60004004146003E0146824F0400414600C7A19
:100E7000012C04D1146844F02004146003E01468C9
:100E800024F0200414604C7A012C04D1146844F03E
:100E90001004146003E0146824F0100414608C7AC9
:100EA000012C04D1146844F00804146003E01468B1
:100EB00024F008041460CC7A012C04D1146844F0A6
:100EC0000404146003E0146824F0040414608C78B3
:100ED000A407CD7844EA05640D7944EA05444D79C8
:100EE00044EA05540D886D1E2C43D461146824F027
:100EF00001041460002300E05B1C546814F0010F2F
:100F000003D0A3F57F44FF3CF6D1546814F0010FE1
:100F100001D0002000E0012030BD10B50021837A0F
:100F2000012202FA03F1AC4A126842F00102AA4B14
:100F30001A60A94A1C3212688A43A74B1C331A60F4
:100F4000027BCAB9A44A0C3212688A43A24B0C3302
:100F50001A604288C38842EA03439F4A4032847A37
:100F600042F834300288838842EA03439A4A403286
:100F7000847A02EBC4025360027B012A19D1964A9B
:100F80000C3212680A43944B0C331A60428803886F
:100F900042EA0343904A4032847A42F83430C288AD
:100FA000838842EA03438C4A4032847A02EBC402CB
:100FB0005360C27A3AB9884A121D12688A43864B36
:100FC0001B1D1A6006E0844A121D12680A43824BF8
:100FD0001B1D1A60028932B97F4A143212688A4393
:100FE0007D4B14331A600289012A06D17A4A1432E1
:100FF00012680A43784B14331A60427B012A06D1E7
:10100000754A1C3212680A43734B1C331A60724AC9
:10101000126822F00102704B1A6010BD002181712C
:10102000C171017241728172C1728170C1700321FC
:1010300001710221417101210180704766490968EF
:1010400041F00101644A11601146096843F60E72CD
:101050009143614A11601146096841EA002111601B
:101060001146096821F001011160704721B1026841
:1010700042F48032026003E0026822F480320260AF
:101080007047E1B1026842F0800202604FF4C27220
:10109000125842F480734FF4C27213504FF4CA7264
:1010A000125842F480734FF4CA7213504FF4D27244
:1010B000125842F480734FF4D27213501BE002684E
:1010C00022F0800202604FF4C272125822F4807340
:1010D0004FF4C27213504FF4CA72125822F4807344
:1010E0004FF4CA7213504FF4D272125822F4807324
:1010F0004FF4D2721350704710B502460020936827
:1011000003F08063B3F1806F00D110E0936803F0C7
:101110000063B3F1006F01D1012008E0936803F090
:101120008053B3F1805F01D1022000E00420042845
:1011300079D002F5C07303EB00131B6803F00104C0
:1011400002F5C07303EB00131C600B7A7BB94B7A7A
:101150000C8843EA445302F5C07404EB001424687D
:10116000234302F5C07404EB0014236010E00B7AF3
:101170004C6843EAC4034C7A234302F5C07404EB81
:1011800000142468234302F5C07404EB00142360A8
:101190008B7A03F00F038B7202F5C07303EB00131D
:1011A0005B6823F00F0402F5C07303EB00135C606F
:1011B00002F5C07303EB00135B688C7A234302F5DE
:1011C000C07404EB001463608B7B1C064B7B44EA09
:1011D000034403E000640040006600400B7B44EAE7
:1011E0000323CC7A234302F5C07404EB0014A360FC
:1011F0008B7C1C064B7C44EA03440B7C44EA0323AF
:10120000CC7B234302F5C07404EB0014E36002F5C9
:10121000C07303EB00131B6843F0010402F5C073B5
:1012200003EB00131C6010BD10B50246002321B172
:10123000012907D002290FD109E09068F84C00EA93
:1012400004030BE09068F74C00EA040306E09068A2
:10125000F54C00EA040301E0002300BF00BFF34C9B
:10126000181BA34216D007DC83B16FF080601818FA
:101270000ED0022818D111E0B0F5007F10D0EC4C50
:10128000001909D0B0F5003F0ED10BE002230DE0AC
:1012900000230BE0002309E0002307E0012305E021
:1012A000012303E0012301E0002300BF00BFD8B207
:1012B00010BD21B1012907D002290FD109E08268B0
:1012C00042F0800282600AE0826842F4004282605A
:1012D00005E0826842F40002826000E000BF00BFC7
:1012E000704710B500F5D87303EB01131B6803F0CA
:1012F00004031372137A53B900F5D87303EB011387
:101300001B6840F2FF7404EA5353136009E000F5D0
:10131000D87303EB01131B686FF0604404EAD30336
:10132000536000F5D87303EB01131B6803F002034D
:10133000537200F5D87303EB01135B6803F00F03DE
:10134000937200F5D87303EB01135B681B0AD37427
:1013500000F5D87303EB01139B68D37200F5D873C3
:1013600003EB01139B681C0A147300F5D87303EB9D
:1013700001139B681C0C547300F5D87303EB011325
:101380009B681B0E937300F5D87303EB0113DB68A6
:10139000D37300F5D87303EB0113DB681C0A1474D4
:1013A00000F5D87303EB0113DB681C0C547400F5D3
:1013B000D87303EB0113DB681B0E937421B9C36868
:1013C00043F02003C36003E0036943F0200303619B
:1013D00010BD21B9C26842F02002C26003E0026978
:1013E00042F02002026170470246002019B9D3681A
:1013F00003F0030006E0012903D1136903F00300A1
:1014000000E00020704710B502460B4600204FF662
:10141000FF71BBB9146824F0020444F001041460A5
:1014200000E0491E546804F00304012C01D0002997
:10143000F7D1546804F00304012C01D0002032E0FD
:10144000012030E0012B13D1146824F00304146050
:1014500000E0491E546814F0030F01D00029F8D1B0
:10146000546814F0030F01D000201CE001201AE0A2
:10147000022B17D1146824F0010444F00204146014
:1014800000E0491E546804F00304022C01D0002936
:10149000F7D1546804F00304022C01D0002002E0CC
:1014A000012000E0002010BD014600200A6822F063
:1014B000010242F002020A604A6802F00302022AB4
:1014C00000D10120704701464FF6FF7200200B68E3
:1014D00023F002030B6000E0521E4B6803F002038E
:1014E000022B01D1002AF7D14B6803F00203022B33
:1014F00000D001207047014600208A6902F0700088
:101500007047014600208A69100E7047014600208E
:101510008A69C2F3074070471AB143690B434361BC
:1015200002E043698B434361704710B502460020D7
:1015300011F4700F08D09369C1F31304234201D052
:1015400001202DE000202BE011F0807F08D05368AF
:10155000C1F31304234201D0012021E000201FE049
:1015600011F0006F08D09368C1F31304234201D037
:10157000012015E0002013E011F0007F08D0D368AF
:10158000C1F31304234201D0012009E0002007E049
:101590001369C1F31304234201D0012000E00020AD
:1015A00010BD0022234B994202D10023836111E038
:1015B000C1F3130211F0007F01D0C2600AE011F004
:1015C000806F01D0026105E011F0006F01D08260F0
:1015D00000E042607047024600200A4201D001202C
:1015E00000E00020704770B504460D460026606993
:1015F000284272D0B5F5807F69D01DDC082D42D01D
:1016000006DC012D2DD0022D31D0042D7FD134E008
:10161000102D3ED0202D42D0402D78D145E0000045
:10162000030000040003000800000310000100088C
:101630000001FFF77000F030B5F5004F61D009DC14
:10164000B5F5007F4AD0B5F5806F4DD0B5F5006F88
:101650005DD150E0B5F5803F2DD0B5F5003F56D1B6
:101660002FE0A0685549FFF7B6FF064651E0E06855
:101670000321FFF7B0FF06464BE0E0680821FFF7C3
:10168000AAFF064645E0E0681021FFF7A4FF0646E2
:101690003FE020690321FFF79EFF064639E02069FD
:1016A0000821FFF798FF064633E020691021FFF775
:1016B00092FF06462DE060680821FFF78CFF064682
:1016C00027E060681021FFF786FF064621E0A06949
:1016D0000121FFF780FF06461BE01BE0A069022105
:1016E000FFF779FF064614E0A0690421FFF773FFB6
:1016F00006460EE00BE0A0697021FFF76CFF06467E
:1017000007E060680421FFF766FF064601E0002657
:1017100000BF00E00026304670BDB1F5007F3AD032
:101720000FDC202928D006DC01291CD004291DD07B
:10173000082940D11DE0402921D0B1F5807F3AD160
:1017400026E0B1F5004F31D006DCB1F5806F25D031
:10175000B1F5006F2FD124E0B1F5803F12D0B1F583
:10176000003F28D111E0154A826025E00822C260BE
:1017700022E01022C2601FE0082202611CE0102259
:10178000026119E00822426016E01022426013E074
:101790000422426010E0042242600DE00422426014
:1017A0000AE0002282610422426005E00022826198
:1017B0000422426000E000BF00BF70470101010049
:1017C00010B504468C48844208D10121084600F037
:1017D00006FC0021012000F002FC5EE08748844204
:1017E00008D10121022000F0FAFB0021022000F0C4
:1017F000F6FB52E08248844208D10121042000F027
:10180000EEFB0021042000F0EAFB46E07D48844224
:1018100008D10121082000F0E2FB0021082000F09F
:10182000DEFB3AE07848844208D10121102000F024
:10183000D6FB0021102000F0D2FB2EE0734884423A
:1018400008D10121202000F0CAFB0021202000F057
:10185000C6FB22E06E48844208D10121402000F0FE
:10186000BEFB0021402000F0BAFB16E0694884422C
:1018700008D10121802000F0B2FB0021802000F07F
:10188000AEFB0AE06448844207D10121801500F0D4
:10189000A6FB0021A01500F0A2FB10BDF0B50A4682
:1018A00000210023002400BF3DE0012505FA01F3DB
:1018B000156805EA03049C4234D105684F000326ED
:1018C000BE40B543056015794E00B5400668354306
:1018D00005601579012D02D01579022D16D1856884
:1018E0004F000326BE40B543856055794E00B54094
:1018F000866835438560456801268E40B54345605E
:10190000456896798E40B6B235434560C5684F004C
:101910000326BE40B543C560D5794E00B540C668C4
:101920003543C560491C1029BFD3F0BD4FF6FF7188
:1019300001600021017141718171C171704708B569
:101940004FF480320092009A0A430092009AC261DA
:10195000C161009AC261C2690092C269009208BD69
:101960000246002013690B4201D0012000E0002054
:1019700070470146086980B27047024600205369EB
:101980000B4201D0012000E0002070470146486969
:1019900080B2704701837047418370470AB1018369
:1019A00000E0418370474161704742694A404261AB
:1019B0007047F0B5002300244D07ED0E02FA05F341
:1019C000CE1000F1200555F826504E07F70E0F26D1
:1019D000BE40B543CF1000F1200646F82750CE1088
:1019E00000F1200555F8265045EA0304CE1000F119
:1019F000200545F82640F0BD0000024000040240EA
:101A000000080240000C0240001002400014024096
:101A100000180240001C0240002002400CB50020CB
:101A2000019000907548006840F480307349086068
:101A300000BF7248006800F4003000900198401C1C
:101A40000190009818B90198B0F5A06FF1D16B48DA
:101A5000006810F4003F02D00120009001E0002057
:101A600000900098012845D164484030006840F05B
:101A700080506249403108606148006840F480400D
:101A80005F4908605D48083000685C4908310860BB
:101A90000846006840F4004008600846006840F4CA
:101AA000A05008605748091F0860081F006840F0F0
:101AB0008070091F086000BF5048006810F0007F68
:101AC000FAD040F20560504908604C480830006880
:101AD00020F003004949083108600846006840F0DA
:101AE0000200086000BF45480830006800F00C00A4
:101AF0000828F8D10CBD10B54448006840F47000C7
:101B0000424908603D48006840F001003B490860D8
:101B100000203A4908310860384800683C490840CC
:101B2000364908603B48091D0860081F006820F41A
:101B30008020091F0860002030490C310860FFF741
:101B40006DFF4FF0006031498039086010BD70B5FD
:101B500000200022022300240221284D08352D6890
:101B600005F00C0020B1042806D0082834D107E085
:101B7000294D2A4E356033E0294D284E35602FE03F
:101B80001E4D2D1D2D68C5F380541C4D2D1D2D6837
:101B900005F03F0154B1224DB5FBF1F5174E361D4E
:101BA0003668C6F3881605FB06F209E01A4DB5FB48
:101BB000F1F5124E361D3668C6F3881605FB06F29F
:101BC0000E4D2D1D2D68C5F301456D1C6B00B2FB3C
:101BD000F3F5124E356003E00F4D104E356000BF37
:101BE00000BF064D08352D68C5F303150D4E705D19
:101BF0000A4D2D68C540094E356070BD0038024061
:101C00000070004008544007003C024088ED00E0AE
:101C1000FFFFF6FE103000240024F4002000002016
:101C200000127A0024000020FA48006840F0010009
:101C3000F84908600020F74908310860F548006855
:101C4000F5490840F3490860F448091D0860081F79
:101C5000006820F48020091F08600020ED490C3145
:101C6000086070470021EB4A921C11701146087001
:101C7000704710B501460022002300204A11012AB6
:101C800002D1E44C236808E0022A03D1E14C70340D
:101C9000236802E0DF4C7434236801F01F02012442
:101CA00094401C4201D0012000E0002010BD38B556
:101CB000002000900024002500BF3120FFF7D9FF4D
:101CC00005460098401C00900098B0F5A06F01D028
:101CD000002DF2D03120FFF7CCFF08B1012400E045
:101CE0000024204638BD01460020CA4A106820F072
:101CF000F80040EAC10010607047C94908607047A9
:101D00000021C44A703211701170012802D00428D9
:101D10000AD104E00121BF4A7032117005E00521AB
:101D2000BC4A7032117000E000BF00BF7047BD496F
:101D30000860704770B5049C41EA82150126C6EB25
:101D4000530645EA0645054345EA0465B14E361D8E
:101D5000356070BDB24908667047820142EA01727F
:101D6000AC4B84331A607047AD4988667047AC4904
:101D7000C864704702460020A64B0833186820F05C
:101D8000EC6042EA01031843A24B08331860704725
:101D9000024600209F4B0833186820F0784042EA42
:101DA000010318439B4B083318607047014600201D
:101DB000984A0832106820F003000843106070470A
:101DC00094480830006800F00C007047014600207D
:101DD000904A0832106820F0F00008431060704705
:101DE000014600208B4A0832106820F4E050084376
:101DF0001060704701460020864A0832106820F4BF
:101E0000604040EAC10010607047F0B50021002238
:101E100000240225002602237E4F08373F6807F082
:101E20000C0121B1042905D0082937D105E07E4FE6
:101E3000076036E07D4F076033E0764F3F1D3F6817
:101E4000C7F38056734F3F1D3F6807F03F036EB1E5
:101E5000764FB7FBF3F7DFF8BCC10CF1040CDCF8EC
:101E600000C0CCF3881C07FB0CF40CE06E4FB7FBF2
:101E7000F3F7DFF8A0C10CF1040CDCF800C0CCF3E0
:101E8000881C07FB0CF4634F3F1D3F68C7F30147F5
:101E90007F1C7D00B4FBF5F7076002E0624F07602E
:101EA00000BF00BF5B4F08373F6807F0F00109092A
:101EB0005F4F7A5C0768D7404760564F08373F68E6
:101EC00007F4E051890A5A4F7A5C4768D740876027
:101ED000504F08373F6807F46041490B544F7A5C14
:101EE0004768D740C760F0BD002100F44072B2F5EA
:101EF000407F0AD1474A0832116821F4F8114D4A4F
:101F000002401143434A08321160424A703212685B
:101F1000C0F30B031A433F4B70331A6070474149BB
:101F20004439086070473F4940390860704742496A
:101F30000860704739B1374A303212680243354B76
:101F400030331A6006E0334A303212688243314B34
:101F500030331A60704739B12E4A34321268024366
:101F60002C4B34331A6006E02A4A3432126882431A
:101F7000284B34331A60704739B1264A3832126818
:101F80000243244B38331A6006E0224A3832126882
:101F90008243204B38331A60704739B11D4A4032B2
:101FA000126802431B4B40331A6006E0194A403264
:101FB00012688243174B40331A60704739B1154A93
:101FC000443212680243134B44331A6006E0114A4C
:101FD0004432126882430F4B44331A60704739B160
:101FE0000C4A1032126802430A4B10331A6006E0A2
:101FF000084A103212688243064B10331A60704749
:10200000E1B1044A143212680243024B14331A60DD
:1020100019E0000000380240FFFFF6FE10300024F7
:1020200000004742800E47420024F40000127A006C
:1020300034000020FFFCFF0F5C0147425B4A12683E
:1020400082435A4B1A60704739B1584A121D1268C0
:102050000243564B1B1D1A6006E0544A121D1268BB
:102060008243524B1B1D1A60704739B14F4A0C32E4
:10207000126802434D4B0C331A6006E04B4A0C3297
:1020800012688243494B0C331A60704739B1474A92
:10209000103212680243454B10331A6006E0434A7F
:1020A000103212688243414B10331A60704739B1C5
:1020B0003E4A3C32126802433C4B3C331A6006E015
:1020C0003A4A3C3212688243384B3C331A607047BC
:1020D00039B1364A403212680243344B40331A60F9
:1020E00006E0324A403212688243304B40331A6075
:1020F000704739B12D4A4432126802432B4B4433A6
:102100001A6006E0294A443212688243274B44335E
:102110001A60704739B1254A4C3212680243234B8A
:102120004C331A6006E0214A4C32126882431F4B3E
:102130004C331A60704739B11C4A5032126802435E
:102140001A4B50331A6006E0184A50321268824324
:10215000164B50331A60704739B1144AD21F1278A7
:102160000243124BDB1F1A7006E0104AD21F12788E
:1021700082430E4BDB1F1A7070470C4860300068BA
:1021800040F08070094960310860704701460020C6
:10219000064A083A12680A4201D0012000E00020F5
:1021A00070470249891F08707047000014380240C8
:1021B000064C074D06E0E06840F0010394E8070094
:1021C00098471034AC42F6D3FDF7E2FFF421000843
:1021D0001422000802E008C8121F08C1002AFAD120
:1021E00070477047002001E001C1121F002AFBD197
:1021F0007047000014220008000000204400000086
:10220000D4210008582200084400002014040000D3
:10221000E4210008000000000000000000000000B1
:1022200000000000000000000000000000000000AE
:1022300000000000007A030A000000000000000017
:10224000010203040607080900000000010203045C
:0822500001020304060708095E
:040000050800018965
:00000001FF
